:020000040800F2
:10000000404A002045010008D93000087126000848
:10001000D5300008511F00082736000800000000F6
:100020000000000000000000000000008D33000808
:10003000A522000800000000DB3000087934000829
:100040005F0100085F0100085F0100085F01000810
:100050005F0100085F0100085F0100085F01000800
:100060005F0100085F0100085F0100085F010008F0
:100070005F0100085F0100085F0100085F010008E0
:100080005F0100085F0100085F0100085F010008D0
:100090005F0100085F0100085F0100085F010008C0
:1000A0005F0100085F0100085F0100085F010008B0
:1000B0005F0100085F0100085F0100085F010008A0
:1000C0005F0100085F0100085F0100085F01000890
:1000D0005F0100085F0100085F0100085F01000880
:1000E0005F0100085F0100085F0100085F01000870
:1000F0005F0100085F0100085F0100085F01000860
:100100005F0100085F0100085F0100085F0100084F
:100110005F0100085F0100085F0100085F0100083F
:100120005F0100085F0100085F0100085F0100082F
:10013000DFF80CD001F076FD00480047954000083C
:10014000404A00200648804706480047FEE7FEE791
:10015000FEE7FEE7FEE7FEE7FEE7FEE7FEE7FEE777
:100160007D340008310100082DE9F04F4FF0000CFC
:100170004FF0000301EB9C5EBEF90250BEF9004057
:100180000EF5806EBEF90290BEF900800EF5806E0D
:10019000BEF90270BEF900600EF5806EBEF902B0C5
:1001A000BEF900A00EF5806ED044D944A8EB4A0AEF
:1001B000A9EB4B0B4FEAA4044FEAA50504EBA604F8
:1001C00005EBA705A4EB6606A5EB670704EBA804FF
:1001D00005EBA905A4EB6808A5EB690906EBAB06DE
:1001E000A7EBAA07A6EB6B0B07EB6A0A458020F882
:1001F000044B478020F8046BA0F8029020F8048B91
:10020000A0F802A020F804BB03F1010393FAA3FCB9
:10021000B3F5807FAED1A0EB82014FF0100312093D
:100220000FF2341000F1000006B403EB430C6144FC
:10023000A2F5803202EB8332B1F90250B1F90040ED
:10024000A1EB0301B0F902B0B0F900A000F1040085
:10025000A5EB040E0EFB0BFC0AEB4B0E05FB0ACBC9
:1002600004FB0ECAB1F90250B1F90040A1EB030141
:10027000B0F90290B0F9008000F10400A5EB040E83
:100280000EFB09FC08EB490E05FB08C904FB0EC870
:10029000B1F90250B1F90040A1EB0301B0F90270CD
:1002A000B0F9006000F10400A5EB040E0EFB07FCA2
:1002B00006EB470E05FB06C704FB0EC6B1F902505C
:1002C000B1F9004001F10001D044D944A8EB4A0A39
:1002D000A9EB4B0B4FEAA4044FEAA50504EB264417
:1002E00005EB2745A4EBE636A5EBE73704EB2844FE
:1002F00005EB2945A4EBE838A5EBE93906EB2B46DD
:10030000A7EB2A47A6EBEB3B07EBEA3A4D800C80C4
:1003100019444F800E801944A1F80290A1F8008082
:100320001944A1F802A021F804BBB2F5803283DAA7
:1003300003EB430C6144A2F101025FEA024E18BFD5
:10034000A0EB0C007FF476AF06BC4FEA8303920863
:100350007FF46AAFBDE8F08F00400000004000006D
:10036000004000005DDD213BA3227E180000412DEE
:100370007EA5412D0000412D00C000405DDD82E7DB
:100380005DDD213B7EA5412D0040000000400000C6
:1003900000400000AA2A94126B39460649327C0CB0
:1003A000A8118E2349327C0CA3227E1821F77931C3
:1003B000AA2A9412A8118E235DDD213BA3227E1868
:1003C0000000412D95C6B13F461A2B1E58EE373519
:1003D000BEB4C53EA8118E235DDD213B63A97138F3
:1003E000DF089A28B7CDC53E7EA5412D0000412DDE
:1003F00000C0004063A92B1E21F77931BEB4C53E71
:10040000BEB47C0C58EE373561AC213B95C6BAF9C9
:10041000BAE571383BA737355DDD82E75DDD213B0D
:100420007EA5412D21F766D756D53F3D3BA78E23AC
:10043000A811C9CAB7CDC53E61AC7E18AA2AC1C2EF
:1004400095C6B13FBEB47C0C0040000000400000E7
:10045000004000001E3BB504693E9201C83C2403E5
:10046000EB356409C83C24036B3946066C30060E34
:100470001E3BB504EB356409AA2A94126B39460673
:1004800049327C0CAE240917AF37D607882E8D0F62
:100490007E1E5D1BEB356409AA2A941224188C1F5A
:1004A0001E34F10AB3269015A8118E2349327C0C14
:1004B000A3227E18140B60276C30060E7E1E5D1B77
:1004C0007104FB2A882E8D0F461A2B1EC7FD5A2E4B
:1004D0009D2C1211FE15E72021F77931AA2A9412DA
:1004E000A8118E2387F05334B2281314480D202608
:1004F00002EAE536B3269015DF089A289CE32B39EB
:10050000AE2409177104FB2A5DDD213BA3227E186E
:100510000000412D4ED7C53C9320EF198FFB6C2F67
:1005200078D1153E7E1E5D1B21F77931E2CB0F3F5E
:10053000641CC61CB8F2683395C6B13F461A2B1E20
:1005400058EE373597C1FB3F24188C1F02EAE53679
:10055000F0BCEC3FFE15E720BAE57138A6B8853F40
:10056000D5133D2282E1DB39BEB4C53EA8118E23EE
:100570005DDD213B40B1AF3D790FDA244DD9423CDE
:100580002EAE423C480D202656D53F3D8EAB823ADA
:10059000140B602778D1153E63A97138DF089A28BB
:1005A000B7CDC53EB1A71236A906CE2915CA4F3F11
:1005B00078A668337104FB2A95C6B13FBCA5763096
:1005C0003902212C38C3EC3F7EA5412D0000412D7E
:1005D00000C00040BCA5CE29C7FD5A2EF0BCEC3FA0
:1005E00078A620268FFB6C2F09BAB13FB1A73D2218
:1005F00057F976304DB74F3F63A92B1E21F779315C
:10060000BEB4C53E8EABEF19ECF474325EB2153E4B
:100610002EAE9015B8F268332DB03F3D40B11211A7
:1006200087F053342EAE423CBEB47C0C58EE3735C6
:1006300061AC213BA6B8D6072BEC1236C8AADB3931
:10064000F0BC240302EAE53663A9713897C16EFE57
:10065000DCE7B03734A8E53695C6BAF9BAE57138A3
:100660003BA73735E2CB0FF59CE32B3978A66833EF
:1006700078D173F082E1DB39EDA579314ED7EDEB1E
:100680006DDF823A99A56C2F5DDD82E75DDD213B50
:100690007EA5412D9CE33AE352DBB63B99A5FB2AAC
:1006A00002EA19DF4DD9423CEDA59A2887F026DBF6
:1006B0004ED7C53C78A6202621F766D756D53F3DB4
:1006C0003BA78E23C7FDDFD363D3AF3D34A8E7201C
:1006D000710494D078D1153E63A92B1E140B8CCDD8
:1006E00094CF723EC8AA5D1BA811C9CAB7CDC53E3A
:1006F00061AC7E18241850C8E2CB0F3F2EAE901587
:100700007E1E25C615CA4F3F2DB09412AE244AC492
:1007100051C8853F5EB28D0FAA2AC1C295C6B13FAE
:10072000BEB47C0C6C308EC1E2C4D43F4DB76409BA
:10073000EB35B1C038C3EC3F09BA46061E3B2CC0AE
:1007400097C1FB3FF0BC24030040000000400000C4
:1007500000400000D03E2E019B3F6500363FC9009F
:100760009A3D5B02363FC900693E92015F3C8803B7
:10077000D03E2E019A3D5B021E3BB504693E9201BC
:10078000C83C2403D939E205023EF701F43BED03EE
:100790008E380E079A3D5B021E3BB5043F37390881
:1007A000313DC002463A7E05EB356409C83C24035E
:1007B0006B39460692348E0A5F3C88038E380E07EA
:1007C0003433B70BF43BED03AF37D607D231DF0C30
:1007D0008A3B5104CE369D086C30060E1E3BB50494
:1007E000EB356409022F2B0FB23A1A0505352B0A97
:1007F000932D5010463A7E051E34F10A212C7311B8
:10080000D939E2053433B70BAA2A94126B3946065C
:1008100049327C0C3129B413FD38AA065B31410DF5
:10082000B327D2148E380E076C30060E3226EE1522
:100830001F3872077B2FCA0EAE240917AF37D607B1
:10084000882E8D0F262321183F373908932D5010FD
:100850009C213719CE369D089D2C12110E204B1A63
:100860005D360109A42BD3117E1E5D1BEB35640997
:10087000AA2A9412EB1C6C1C7835C709AF295413B3
:10088000561B791D05352B0AB2281314BE19841E78
:1008900092348E0AB327D21424188C1F1E34F10A06
:1008A000B326901588169120A933540BB1254C1608
:1008B000EA1493213433B70BAE2409174A1392225A
:1008C000BF321A0CA923C417A8118E2349327C0CFD
:1008D000A3227E1805108824D231DF0C9C21371901
:1008E000610E7E255B31410D9320EF19BB0C712603
:1008F000E430A40D891FA71A140B60276C30060E74
:100900007E1E5D1B6D094C28F42F680E721D121C93
:10091000C40735297B2FCA0E641CC61C1B061A2A65
:10092000022F2B0F561B791D7104FB2A882E8D0F69
:10093000461A2B1EC702D82B0E2EEE0F3519DC1EC1
:100940001C01B22C932D501024188C1F72FF882D7F
:10095000182DB11011173A20C7FD5A2E9D2C1211D7
:10096000FE15E7201DFC282F212C7311EA1493217A
:1009700073FAF22FA42BD311D5133D22CAF8B83045
:10098000282B3412BF12E72221F77931AA2A9412B8
:10099000A8118E2379F536322D2AF41291103524C0
:1009A000D2F3EF32AF295413790FDA242CF2A333A8
:1009B0003129B413610E7E2587F05334B228131405
:1009C000480D2026E3EEFF34332873142E0CC12685
:1009D00041EDA535B327D214140B6027A1EB48369F
:1009E00033273115FA09FE2702EAE536B3269015BA
:1009F000DF089A2865E87E373226EE15C4073529C8
:100A0000CBE61238B1254C16A906CE2932E5A1381D
:100A10002F25AB168D05652A9CE32B39AE240917CB
:100A20007104FB2A08E2B0392B24661755038F2B7B
:100A300077E0303AA923C4173902212CE9DEAB3A1A
:100A4000262321181C01B22C5DDD213BA3227E1838
:100A50000000412DD5DB923B1F22DB18E4FECF2D99
:100A60004FDAFD3B9C213719C7FD5A2ECDD8643C87
:100A700017219319ABFCE42E4ED7C53C9320EF19F8
:100A80008FFB6C2FD3D5213D0E204B1A73FAF22F1A
:100A90005CD4783D891FA71A57F97630E8D2C93D52
:100AA000041F021B3CF8F93078D1153E7E1E5D1BF9
:100AB00021F779310CD05C3EF81DB81B06F6F831F1
:100AC000A5CE9D3E721D121CECF4743241CDD83E71
:100AD000EB1C6C1CD2F3EF32E2CB0F3F641CC61C44
:100AE000B8F2683388CA403FDD1B201D9FF1DF3319
:100AF00032C96B3F561B791D87F05334E1C7913FD4
:100B0000CE1AD31D6FEFC63495C6B13F461A2B1EC1
:100B100058EE37354EC5CC3FBE19841E41EDA53584
:100B20000CC4E13F3519DC1E2BEC1236CFC2F13F6D
:100B3000AD18341F16EB7D3697C1FB3F24188C1F70
:100B400002EAE53665C000409B17E31FEFE84B372C
:100B500038BFFF3F11173A20DCE7B03711BEF83F2E
:100B600088169120CBE61238F0BCEC3FFE15E7204A
:100B7000BAE57138D4BBDB3F74153D21AAE4CF3808
:100B8000BFBAC43FEA1493219CE32B39AFB9A73F06
:100B90005F14E8218EE28439A6B8853FD5133D2243
:100BA00082E1DB39A2B75D3F4A13922277E0303A07
:100BB000A5B6303FBF12E7226DDF823AAFB5FD3EEA
:100BC00034123B2364DED33ABEB4C53EA8118E2353
:100BD0005DDD213BD5B3883E1D11E22357DC6D3B23
:100BE000F2B2453E9110352452DBB63B15B2FC3DC6
:100BF000051088244FDAFD3B40B1AF3D790FDA2470
:100C00004DD9423C71B05B3DED0E2C254DD8853C55
:100C1000A9AF033D610E7E254ED7C53CE8AEA53C8D
:100C2000D40DCF2551D6033D2EAE423C480D202693
:100C300056D53F3D7BADDA3BBB0C71265CD4783D8D
:100C4000D0AC6D3B2E0CC12663D3AF3D2BACFA3A32
:100C5000A10B11276DD2E33D8EAB823A140B6027B6
:100C600078D1153EF8AA063A870AAF2785D0453EC7
:100C70006AAA8439FA09FE2794CF723EE3A9FD38A7
:100C80006D094C28A5CE9D3E63A97138DF089A28CE
:100C9000B7CDC53EEBA8E1375208E728CCCCEB3EF8
:100CA0007BA84B37C4073529E2CB0F3F12A8B136DA
:100CB00036078129FBCA303FB1A71236A906CE29D3
:100CC00015CA4F3F57A76E351B061A2A32C96B3F0C
:100CD00005A7C6348D05652A51C8853FBBA61934C2
:100CE000FF04B02A72C79C3F78A668337104FB2AC0
:100CF00095C6B13F3EA6B232E303452BBAC5C43F09
:100D00000BA6F83155038F2BE2C4D43FE0A539314F
:100D1000C702D82B0CC4E13FBCA576303902212C88
:100D200038C3EC3FA1A5AF2FAA016A2C66C2F53FDC
:100D30008DA5E42E1C01B22C97C1FB3F81A5152E79
:100D40008E00FA2CCAC0FF3F7EA5412D0000412D28
:100D500000C0004081A56A2C72FF882D38BFFF3F7C
:100D60008DA58F2BE4FECF2D73BEFB3FA1A5B02A2E
:100D700056FE152EB0BDF53FBCA5CE29C7FD5A2E97
:100D8000F0BCEC3FE0A5E72839FD9F2E32BCE13FE7
:100D90000BA6FE27ABFCE42E77BBD43F3EA6112763
:100DA0001DFC282FBFBAC43F78A620268FFB6C2FCE
:100DB00009BAB13FBBA62C2501FBAF2F56B99C3F0A
:100DC00005A7352473FAF22FA6B8853F57A73B2312
:100DD000E5F93430F8B76B3FB1A73D2257F97630CB
:100DE0004DB74F3F12A83D21CAF8B830A5B6303FE5
:100DF0007BA83A203CF8F93000B60F3FEBA8341F2F
:100E0000AEF739315EB5EB3E63A92B1E21F7793180
:100E1000BEB4C53EE3A9201D93F6B93122B49D3E70
:100E20006AAA121C06F6F83188B3723EF8AA021BB1
:100E300079F53632F2B2453E8EABEF19ECF47432EE
:100E40005EB2153E2BACDB185FF4B232CDB1E33DA0
:100E5000D0ACC417D2F3EF3240B1AF3D7BADAB168F
:100E600045F32C33B5B0783D2EAE9015B8F268330B
:100E70002DB03F3DE8AE73142CF2A333A9AF033D70
:100E8000A9AF54139FF1DF3328AFC53C71B03412C2
:100E900013F11934A9AE853C40B1121187F05334D7
:100EA0002EAE423C15B2EE0FFBEF8D34B6ADFD3BDE
:100EB000F2B2CA0E6FEFC63441ADB63BD5B3A40D46
:100EC000E3EEFF34D0AC6D3BBEB47C0C58EE37354E
:100ED00061AC213BAFB5540BCCED6E35F6ABD33ADC
:100EE000A5B62B0A41EDA5358EAB823AA2B7010912
:100EF000B6ECDC3529AB303AA6B8D6072BEC123667
:100F0000C8AADB39AFB9AA06A1EB48366AAA843968
:100F1000BFBA7E0516EB7D360FAA2B39D4BB510420
:100F20008CEAB136B7A9CF38F0BC240302EAE53623
:100F300063A9713811BEF70178E9183712A9123880
:100F400038BFC900EFE84B37C5A8B03765C09BFF75
:100F500065E87E377BA84B3797C16EFEDCE7B0377C
:100F600034A8E536CFC240FD53E7E137F1A77D361F
:100F70000CC413FCCBE61238B1A712364EC5E6FA04
:100F800042E6423874A7A53595C6BAF9BAE5713874
:100F90003BA73735E1C78EF832E5A13805A7C6343F
:100FA00032C963F7AAE4CF38D3A6533488CA39F6D6
:100FB00023E4FD38A4A6DF33E2CB0FF59CE32B3905
:100FC00078A6683341CDE6F315E3583950A6EF32E1
:100FD000A5CEBFF28EE284392CA674320CD098F1E3
:100FE00008E2B0390BA6F83178D173F082E1DB3931
:100FF000EDA57931E8D24FEFFCE0063AD3A5F93000
:101000005CD42DEE77E0303ABCA57630D3D50CED2C
:10101000F2DF593AA9A5F22F4ED7EDEB6DDF823AF8
:1010200099A56C2FCDD8CFEAE9DEAB3A8DA5E42E99
:101030004FDAB4E964DED33A85A55A2ED5DB9AE8B7
:10104000E1DDFA3A7FA5CF2D5DDD82E75DDD213B55
:101050007EA5412DE9DE6DE6DADC473B7FA5B22CAB
:1010600077E059E557DC6D3B85A5212C08E248E483
:10107000D5DB923B8DA58F2B9CE33AE352DBB63B4D
:1010800099A5FB2A32E52DE2D1DADA3BA9A5652A3A
:10109000CBE624E14FDAFD3BBCA5CE2965E81DE097
:1010A000CED9203CD3A5352902EA19DF4DD9423CDF
:1010B000EDA59A28A1EB18DECDD8643C0BA6FE273F
:1010C00041ED19DD4DD8853C2CA66027E3EE1EDCF2
:1010D000CDD7A53C50A6C12687F026DB4ED7C53C10
:1010E00078A620262CF231DACFD6E43CA4A67E25C1
:1010F000D2F33FD951D6033DD3A6DA2479F551D89E
:10110000D3D5213D05A7352421F766D756D53F3DD8
:101110003BA78E23CAF87FD6D8D45B3D74A7E722BD
:1011200073FA9BD55CD4783DB1A73D221DFCBBD49E
:10113000DFD3933DF1A79321C7FDDFD363D3AF3D49
:1011400034A8E72072FF06D3E8D2C93D7BA83A2035
:101150001C0131D26DD2E33DC5A88C1FC70261D1FD
:10116000F2D1FC3D12A9DC1E710494D078D1153E59
:1011700063A92B1E1B06CCCFFED02D3EB7A9791D2F
:10118000C40707CF85D0453E0FAAC61C6D0947CEC0
:101190000CD05C3E6AAA121C140B8CCD94CF723E0C
:1011A000C8AA5D1BBB0CD4CC1CCF883E29ABA71AA8
:1011B000610E21CCA5CE9D3E8EABEF19051073CBF1
:1011C0002ECEB13EF6AB3719A811C9CAB7CDC53E70
:1011D00061AC7E184A1324CA41CDD83ED0ACC417A6
:1011E000EA1483C9CCCCEB3E41AD09178816E8C898
:1011F00057CCFD3EB6AD4C16241850C8E2CB0F3F7D
:101200002EAE9015BE19BEC76ECB203FA9AED2142C
:10121000561B31C7FBCA303F28AF1314EB1CA8C6BE
:1012200088CA403FA9AF54137E1E25C615CA4F3F3A
:101230002DB094120E20A7C5A3C95D3FB5B0D31140
:101240009C212DC532C96B3F40B112112623B9C470
:10125000C1C8783FCDB15010AE244AC451C8853FB3
:101260005EB28D0F3226E0C3E1C7913FF2B2CA0EE3
:10127000B3277BC372C79C3F88B3060E31291CC3BA
:1012800003C7A73F22B4410DAA2AC1C295C6B13FE8
:10129000BEB47C0C212C6DC227C6BB3F5EB5B70B1C
:1012A000932D1DC2BAC5C43F00B6F10A022FD3C1A7
:1012B0004EC5CC3FA5B62B0A6C308EC1E2C4D43FDC
:1012C0004DB76409D2314FC176C4DB3FF8B79D08F2
:1012D000343315C10CC4E13FA6B8D6079234E0C040
:1012E000A1C3E73F56B90E07EB35B1C038C3EC3F99
:1012F00009BA46063F3788C0CFC2F13FBFBA7E0564
:101300008E3864C066C2F53F77BBB504D93945C095
:10131000FEC1F83F32BCED031E3B2CC097C1FB3F22
:10132000F0BC24035F3C19C030C1FD3FB0BD5B027F
:101330009A3D0BC0CAC0FF3F73BE9201D03E03C0AE
:1013400065C0004038BFC900F0B480EA0102D40F84
:101350004200B2EB410F02D20246084611464A0053
:1013600042D0C30DDDB2C1F3C752AD1A202D35DA1C
:10137000C1F3160141F4000204B15242C5F1200646
:1013800002FA06F12A411044B3EBD05F23D0C4B176
:10139000012DA0EBC35009DCF0BC4FF0004202EA83
:1013A000C352DBB200F5000000F02FBB400000F19B
:1013B000807000EBC350A0F1807040EAD17049000A
:1013C00009E0490841EAC071A0EBC35000F50000F4
:1013D000400800EBC350F0BC00F00EBB614201229C
:1013E00002EB4101001BF6E7F0BC704781F00041C1
:1013F000AAE780F00040A7E780EA010210B502F0FA
:101400000043400022D04A001FD0010E01EB1261C0
:10141000C0F35600C2F3560240F4000042F400024A
:10142000A0FB022000047F39140400D0401C50EAC5
:10143000124001D44000491EC2B20C0604EBD01089
:10144000401C4008802A02D003E0002010BD20F09C
:101450000100002900DA0020184310BD30B480EAF2
:10146000010202F0004530F0004221F0004013D0AC
:1014700090B1C30DD40DC2F31601C0F31600E41AE7
:1014800041F4000140F400027D34914201D3641C18
:1014900000E04900002C02DA30BC002070474FF415
:1014A00000000023914201D3891A034340084FEA08
:1014B0004101F7D151B1914202D14FF0004105E015
:1014C00002D24FF0010101E06FF0010103EBC450C3
:1014D000284430BC00F090BA2DE9FE4F804681EAE6
:1014E0000300C00F0C46009021F0004123F000459E
:1014F000B8EB0200A94105D24046214690461C4661
:101500000B46024623F00040104347D0270DC7F397
:101510000A00C3F30A510290401A019040286BDA86
:10152000C3F3130040F4801B0098924620B10023BF
:10153000D2EB030A63EB0B0B01985946C0F1400252
:10154000504600F028FA06460D4650465946019A84
:1015500000F040FA10EB08006141002487EA1152C4
:1015600084EAE7731A4340D0009A62B3019A012AD1
:101570004FEA075215DC001B61EB02014FF00042FD
:1015800002EA0752CDE90042001C41F580113246C3
:101590002B4600F077FA03B0BDE8F08F40462146B5
:1015A000F9E7001B61EB0201001C41F580130018F4
:1015B0005B412018A2F5001747EB030140EAD57004
:1015C000B6196D4111E06D084FEA360645EAC0755F
:1015D0004FEA0752001B61EB0201001C41F580112C
:1015E00049084FEA30000019514132462B4603B0FA
:1015F000BDE8F04F00F037BA009801224000002308
:10160000D0EB020263EBE073009821464FEAE074EE
:10161000B8EB000061EB0401E9E783F000435BE70E
:1016200081F0004158E72DE9FE4F81EA030404F000
:10163000004421F0004100944FF0000B23F00043E0
:1016400050EA01045ED052EA03045BD0C3F30A54AB
:10165000C1F30A552C44A4F2F3340194A0FB0254C4
:10166000C1F3130141F48011C3F3130343F4801356
:1016700001FB024400FB034E840A970A44EA8154AA
:1016800047EA8357A4FB076802958D0A05FB078587
:101690004FEA932C04FB0C542705029D4FEA065891
:1016A00047EA1637B5EB08056EEB070C870E920E6E
:1016B00047EA811742EA8312A7FB0201B6EB0B014E
:1016C00064EB00042B0D43EA0C335E1844EB1C5012
:1016D000DA465146E7FB0201C5F313044FEA0B3328
:1016E00043EA14534FEA0432019C43EA0603A4F18F
:1016F0000C040294009CCDE900B400F0C3F903B0DF
:10170000BDE8F08F00200146F9E72DE9F04D81EAB0
:10171000030404F0004B21F0004514464FF0000A8A
:1017200023F0004150EA050220D054EA01021DD006
:10173000C5F30A570246C5F31303C1F31300C1F3FF
:101740000A5640F4801543F48013A7EB0608101BDB
:10175000D64608F2FD3873EB050002D308F1010804
:1017600001E092185B41B8F1000F03DA0020014656
:10177000BDE8F08D00204FF48011064684460EE04F
:10178000171B73EB050705D3121B63EB0503064319
:101790004CEA010C49084FEA300092185B4150EACC
:1017A0000107EDD152EA030012D082EA040083EA75
:1017B0000501084305D0101BAB4106D201220023CE
:1017C00006E000224FF0004302E06FF001025310E8
:1017D0001AEB06004CEB085110EB0A0041EB0B0131
:1017E000BDE8F04D00F03FB9C10F80EAE070084459
:1017F000CA079623002100F008B99623002211465B
:1018000000F003B90EB5C10F80EAE0700844CA07C2
:10181000002140F233438DE80E000A460B4600F0EB
:1018200031F903B000BD20F00040C10DC0F3160037
:1018300040F400007F2901DA00207047962903DC7C
:10184000C1F19601C8407047963988407047C1F38E
:101850000A5210B5C1F3130140F2FF3341F4801175
:101860009A4201DA002010BD40F233439A42A2F2BC
:10187000334203DC524200F09DF810BD904010BD91
:1018800000F0004230F000400AD0C10D01F5607157
:10189000C0F3160042EA0151C208400711437047E5
:1018A00000200146704701F0004330B421F00041B0
:1018B00050EA010206D00A0DA2F56072C1F31301CD
:1018C000002A02DC30BC00207047440F44EAC10407
:1018D000C100E01830BC00EBC25000F08DB8000031
:1018E000002801DBC0F10040002901DBC1F100410B
:1018F00081427047002801DBC0F10040002901DB74
:10190000C1F100418842704730B50B4601460020C6
:101910002022012409E021FA02F59D4205D303FAB1
:1019200002F5491B04FA02F52844151EA2F1010232
:10193000F1DC30BD2DE9F05F0546002092469B4664
:1019400088460646814640241BE0284641464746D5
:10195000224600F02FF853465A46C01A914110D340
:1019600011461846224600F016F82D1A67EB0108BA
:101970004F4622460120002100F00DF817EB000928
:101980004E41201EA4F10104DFDC484631462A46C0
:101990004346BDE8F09F202A04DB203A00FA02F11A
:1019A000002070479140C2F1200320FA03F319434D
:1019B00090407047202A04DB203A21FA02F00021EF
:1019C000704721FA02F3D040C2F12002914008434F
:1019D00019467047202A06DBCB17203A41FA02F05D
:1019E00043EAE07306E041FA02F3D040C2F120027C
:1019F00091400843194670470029A8BF7047401C12
:101A0000490008BF20F00100704710B4B0FA80FC14
:101A100000FA0CF050EA010404BF10BC704749B151
:101A2000CCF1200421FA04F411FA0CF118BF0121C1
:101A300021430843A3EB0C01CB1D4FEA00614FEAA1
:101A4000102042BF002010BC704700EBC350104470
:101A50000029A4BF10BC7047401C490008BF20F0FB
:101A6000010010BC704710B5141E73F1000408DAB1
:101A7000401C41F1000192185B411A4301D120F052
:101A8000010010BD2DE9F04D92469B4611B1B1FA0F
:101A900081F202E0B0FA80F220329046FFF77BFF3D
:101AA00004460F4640EA0A0041EA0B0153465A46F3
:101AB000084313D0114653EA010019D0C8F140027F
:101AC0005046FFF777FF05460E46504659464246B8
:101AD000FFF761FF084305D0012004E020463946A6
:101AE000BDE8F08D0020054346EAE0762C433743FD
:101AF0000A986305E40AA0EB08000022FD0A44EA04
:101B000047540A3002D500200146E9E701051019C3
:101B10006941DDE9084500196941BDE8F04DA2E7DA
:101B20002DE9F04D00231A461B1A8A4103DB0020E1
:101B30000146BDE8F08DC1F30A52C1F3130141F42F
:101B400080154FF0000BD10702D100186D41521ED5
:101B50000027044640F2FF11384601EB620A3E4678
:101B60008046024600204FF48011FFF723FFC21980
:101B70007141BB1846EB0100B4EB030C75EB000C94
:101B800004D3E41A65EB000517460E46241908F144
:101B900001006D4180463428E3DDF91946EB06006B
:101BA000091BA84103D24FF0FF32134601E0002287
:101BB00013461BEB070046EB0A51BDE8F04DFFF75B
:101BC00052BFC1F30A52C1F3130140F2FF3341F493
:101BD00080119A4202DA00200146704740F23343F6
:101BE0009A42A2F2334202DC5242FFF7E3BEFFF711
:101BF000D2BE000030B5041E71F1000404DB4FF0CA
:101C00000044404264EB0101141E73F1000405DB43
:101C10001C464FF00043524263EB0403994208BF55
:101C2000904230BD064C074D06E0E06840F00103ED
:101C300094E8070098471034AC42F6D3FEF77CFADC
:101C4000A47F0008C47F000870B58D1810F8014B00
:101C500014F0030201D110F8012B231106D110F862
:101C6000013B03E010F8016B01F8016B521EF9D142
:101C7000ABB110F8012B04F00C048A1A0C2C03D021
:101C8000A2EB84129B1C08E010F8014BA2EB04228B
:101C9000F8E712F8014B01F8014B5B1EF9D5A94298
:101CA000D4D3002070BD21B1826842F0010282606D
:101CB00003E0826822F001028260704721B18268ED
:101CC00042F48072826003E0826822F48072826053
:101CD0007047014600208A6802F004020AB1012020
:101CE00000E000207047014600208A6802F00802E8
:101CF0000AB1012000E000207047000030B5024624
:101D00000020002350680F4C20400D790C6844EAF5
:101D100005242043506090680B4C2040D1E90254C8
:101D20002C434D7944EA450420439060D06A20F466
:101D300070000C7C641EE4B2234340EA0350D0627E
:101D400030BD0000FFFEF0FFFDF7F1FFF0B50446E7
:101D50000D4600200021092D11DDE068A5F10A06DD
:101D600006EB4607072606FA07F18843A5F10A069F
:101D700006EB460603FA06F10843E0600CE0206932
:101D800005EB4507072606FA07F1884305EB4506EC
:101D900003FA06F108432061072A0FDA606B561E2A
:101DA00006EB86071F2606FA07F18843561E06EB48
:101DB000860605FA06F10843606322E00D2A0FDA71
:101DC000206BD61F06EB86071F2606FA07F188430D
:101DD000D61F06EB860605FA06F10843206310E0DD
:101DE000E06AA2F10D0606EB86071F2606FA07F148
:101DF0008843A2F10D0606EB860605FA06F10843B4
:101E0000E062F0BD816841F008018160704721B156
:101E1000826842F4A002826003E0826822F4A00299
:101E200082607047816841F0040181607047000062
:101E300008B50121102001F07DF90220ADF8000065
:101E400000208DF803006946014800F058FB08BDEA
:101E50000010014010B5FFF7EBFF00F001F810BDD6
:101E600000B591B00121084601F044F90121480272
:101E700001F060F9334800F04FF9334806903348D9
:101E80000790002008904FF48060099000200A908D
:101E900080200B9040000C9080000D9020200E9030
:101EA00000020F900020109006A9264800F0DAF9F1
:101EB0000121244800F023F9002001908DF808004A
:101EC00001208DF809004FF4602003900020049059
:101ED00001208DF8140001A91B484C38FFF70EFFB4
:101EE0004FF4404001F0FAF8052301220B21164877
:101EF0004C38FFF72BFF012113484C38FFF7DEFE6B
:101F0000012111484C38FFF7CEFE0F484C38FFF73F
:101F100079FF00BF0C484C38FFF7E5FE0028F9D1E7
:101F200009484C38FFF77EFF00BF07484C38FFF7E1
:101F3000D0FE0028F9D1012103484C38FFF767FF94
:101F400011B000BD080002404C240140BC3D0020FF
:101F500000BFFEE739B1084A1268012383401A43E3
:101F6000054B1A6006E0044A1268012383409A4335
:101F7000014B1A60704700000074004000B585B046
:101F80000121042001F0D6F80121480701F0C2F830
:101F90002020ADF8100000208DF8130004A90D4892
:101FA00000F0ADFA24200090002001900220039060
:101FB0006946002000F052F86946102000F04EF803
:101FC00001211020FFF7C6FF0121102000F004F8C6
:101FD00005B000BD0008014041B1094A12684FF444
:101FE000805383401A43064B1A6007E0044A126884
:101FF0004FF4805383409A43014B1A6070470000AE
:102000000074004000B58BB00121022001F072F88D
:102010000F4800900F48019010200290202003905C
:10202000002004908020059080000690800007909A
:10203000202008900002099000200A906946064876
:1020400000F010F90121044800F059F80BB000BD70
:1020500020740040BC4500204404024030B50022FA
:1020600000230A4C226840F6FE748440A243D1E962
:1020700000452C438D682C43CD6844EA050303FAE0
:1020800000F42243014C226030BD00000074004087
:1020900010B50024FFF772FF00F014F800BF08E04D
:1020A000064830F8140000EB0040054941F82400D0
:1020B000641C202CF4D3FFF7A5FF10BD647F00083B
:1020C000BC4500200EB50121084601F023F802208E
:1020D000ADF804000020ADF80000ADF80600ADF842
:1020E000020069464FF0804001F00EFA20214806B8
:1020F00001F000FA0121880701F0F0F90EBD21B1CD
:10210000026842F00102026004E002684FF6FE73CA
:102110001A4002607047000001684FF6FE721140DD
:1021200001600021016041608160C1604B498842CB
:1021300008D14A490839496841F00F01474A083A2D
:1021400051608AE045491431884208D14349083931
:10215000496841F0F001414A083A51607DE03F4949
:102160002831884208D13D490839496841F47061F5
:102170003A4A083A516070E038493C31884208D107
:1021800036490839496841F47041344A083A516087
:1021900063E032495031884208D1304908394968F2
:1021A00041F470212D4A083A516056E02B496431C0
:1021B000884208D129490839496841F47001274A01
:1021C000083A516049E025497831884208D12349CD
:1021D0000839496841F07061204A083A51603CE092
:1021E0001F49884206D1011F096841F00F01021FF3
:1021F000116032E01A491431884208D11849091F88
:10220000096841F0F001164A121F116025E01449D7
:102210002831884208D11249091F096841F47061C8
:102220000F4A121F116018E00D493C31884208D155
:102230000B49091F096841F47041094A121F1160D6
:102240000BE007495031884207D10549091F096849
:1022500041F47021024A121F1160704708000240C9
:102260000804024010B50022026847F6F0739A4352
:102270000C6A8B6823430C6923434C6923438C69A4
:102280002343CC6923434C6A23438C6A23431A4378
:102290000260CB6843600B6883604B68C36010BD0D
:1022A00041607047704700002DE9F047052000F0BD
:1022B000DDFC00247EE0424931F81400FFF79DFA6E
:1022C00082464FF08B41FFF7C9F88146FFF7D8FAF5
:1022D00007464FF066323B4BFFF7A5F90546FFF77F
:1022E000E2FA3949086008460068FFF7C9FA05466E
:1022F0002A460B4635A1374801F0CEF900F0D2FE50
:10230000C08800EBC00085B23249284600F0A6FA2A
:102310003148006820442A4931F81000232190FBFD
:10232000F1F02E4941F824004FF4FC6000F0CCFE9F
:102330008CB12A4D55F82450C5F17805ABB2A2B244
:10234000651E264E56F82550C5F17805A9B2651EC2
:10235000A8B200F030FBB4F5A07F2AD1002000F035
:10236000B3FE002413E08CB11C4D55F82450C5F188
:102370007805ABB2A2B2651E184E56F82550C5F1CD
:102380007805A9B2651EA8B200F015FB641CB4F56F
:10239000A07FE8DB01F04EF900211148FFF7AFFE06
:1023A0004FF480610E48FFF77BFF01210C48FFF7D7
:1023B000A6FE641CB4F5B47FFFF67DAFBDE8F087E0
:1023C000BC3D002066660A40FC0F0020564F4C259D
:1023D0002E32660058100020F40F0020BC100020A0
:1023E0000800024051B18200A2F1C042126842F0DE
:1023F00001038200A2F1C042136009E08200A2F151
:10240000C0421268034B1A408300A3F1C0431A6014
:1024100070470000FEFF0F00D0E901121143C268AF
:102420001143026911434269114382691143C26930
:102430001143026A1143426A1143826A1143C26A1C
:102440001143026B114302689200A2F1C042116075
:10245000816808290BD101688900A1F1C041096890
:1024600041F0400201688900A1F1C0410A60416B5E
:102470000968426B526841EA0211426B926841EA74
:102480000221426B928941EA0241426B128A41EA7F
:102490000251426B127D41EA0261426B9269114323
:1024A0000268521C9200A2F1C0421160C16AB1F5EB
:1024B000804F1BD1816B0968826B526841EA02111F
:1024C000826B926841EA0221826B128A41EA0251D0
:1024D000826B127D41EA0261826B9269114302684C
:1024E0009200A2F1C042C2F8041107E06FF07042FE
:1024F00001688900A1F1C041C1F8042170472DE9AC
:10250000F041024600250026002000230024002779
:1025100091F803C00CF00F0591F803C00CF0100CFB
:10252000BCF1000F03D091F802C04CEA050591F808
:1025300000C0BCF1000F31D0146800202BE04FF038
:10254000010C0CFA00F3B1F800C00CEA03069E423D
:1025500020D183004FF00F0C0CFA03F7BC4305FAAF
:1025600003FC4CEA040491F803C0BCF1280F06D127
:102570004FF0010C0CFA00FCC2F814C00AE091F80C
:1025800003C0BCF1480F05D14FF0010C0CFA00FC60
:10259000C2F810C0401C0828D1D31460B1F800C0A4
:1025A000BCF1FF0F34DD546800202EE000F1080C70
:1025B0004FF0010808FA0CF3B1F800C00CEA03066A
:1025C0009E4221D183004FF00F0C0CFA03F7BC435D
:1025D00005FA03FC4CEA040491F803C0BCF1280F8F
:1025E00005D100F1080C08FA0CF8C2F8148091F833
:1025F00003C0BCF1480F07D100F1080C4FF00108EF
:1026000008FA0CF8C2F81080401C0828CED3546099
:10261000BDE8F08141617047016170472DE9F041EB
:1026200080460C461048007820B900F0C7FD012014
:102630000D4908702512E6B2A5F1A101C1EB011206
:1026400002EB411106EB4101A1390802C11700EB71
:102650005171CF10054839182022404600F086FD00
:102660000020BDE8F0810000481000200030180074
:1026700000BFFEE710B504462CB14FF48051054869
:10268000FFF7C8FF04E04FF480510248FFF7C4FF92
:1026900010BD0000001401402DE9F04106460F4630
:1026A00014461D462B4622463946304600F04EFB66
:1026B00004FB05F00249098800F0FCF9BDE8F0814F
:1026C0002E10002001B502E00098401E00900098F6
:1026D0000028F9D108BD00002DE9F04389B08046FB
:1026E0008946174610231A464946404600F02EFBFD
:1026F0002C2000F0ADFC394601A8FFF78FFF002425
:1027000022E001A810F814604FF6FF7000EA0626D8
:10271000012000EB440001A9085C064300250FE0FE
:102720004FF400402841304020B10A48008800F0B2
:1027300093FC03E00848008800F08EFC681CC5B2DA
:10274000102DEDDB601CC4B2102CDADB09B0BDE843
:10275000F08300002C1000202E1000202DE9F05FE7
:10276000804689461646A6F120001FFA80FA1E49C7
:10277000096889881C4A1268D28801FB02F0C117D7
:1027800000EB5171C1F3C7071748006800680AFBE6
:10279000070B15480068C3881348006882884946BB
:1027A000404600F0D3FA2C2000F052FC002416E042
:1027B000002510E01BF8040080212941084020B1C9
:1027C0000A48008800F048FC03E00948008800F04F
:1027D00043FC681CC5B2082DECDB601CC4B2BC42D3
:1027E000E6DBBDE8F09F0000281000202C10002040
:1027F0002E10002070B504460D46002624E0304619
:10280000134909688988084412490988884205DD06
:1028100000260F480068C088204484B220460C4936
:102820000968C98808440C490988884201DD0026E6
:1028300000242A7821463046FFF790FF6D1C04489B
:1028400000688088304486B228780028D7D170BDCF
:102850002810002020100020221000202DE9F04137
:1028600005460C46002648E020787E2825DC3046C8
:10287000244909688988084423490988884205DD74
:10288000002620480068C088284485B228461D4993
:102890000968C98808441D490988884201DD002665
:1028A0000025227829463046FFF758FF1548006872
:1028B0008088304486B2641C1FE0304610301249D4
:1028C0000988884203DD002605F1100085B22846FC
:1028D00010300E490988884201DD0026002527882E
:1028E000380200EB272087B23A4629463046FFF7E8
:1028F000F3FE06F1100086B2A41C20780028B3D1A4
:10290000BDE8F081281000202010002022100020B7
:102910002DE9FF4F83B081464FF0000AD34605985A
:10292000A0EB090504990698461ACDF8049004987E
:102930000090002D01DD012705E00DB9002702E020
:102940004FF0FF376D42002E02DD4FF0010806E028
:1029500016B94FF0000802E04FF0FF387642B5425A
:1029600001DD2C4600E03446002002901CE0DDE949
:10297000001000F051FBAA44B344A24506DDAAEBC7
:10298000040A391D0198084480B20190A34507DD6F
:10299000ABEB040B08F104010098084480B20090EE
:1029A0000298001D80B20290611C02988842DEDD10
:1029B00007B0BDE8F08F2DE9FF4F83B081464FF09F
:1029C000000AD3460598A0EB090504990698461A13
:1029D000CDF8049004980090002D01DD012705E05A
:1029E0000DB9002702E04FF0FF376D42002E02DDE7
:1029F0004FF0010806E016B94FF0000802E04FF072
:102A0000FF387642B54201DD2C4600E03446002016
:102A1000029019E0DDE9001000F0FEFAAA44B34488
:102A2000A24505DDAAEB040A0198384480B2019062
:102A3000A34505DDABEB040B0098404480B2009049
:102A40000298401C80B20290611C02988842E1DD2D
:102A500007B0BDE8F08F00B597B00121080200F083
:102A600049FB01200190042003908006079000207C
:102A700002900490059006900890099008200A9012
:102A800010200B9000200C900E900F9010904FF49F
:102A900080501190002012901390149001A815906E
:102AA000169008A8FFF7B8FC01210020FFF79AFC58
:102AB00017B000BD70B504460D4600262C2000F06E
:102AC000C7FA00BF03E0284600F0C6FA761CA6420B
:102AD000F9D370BD08B50121602000F02BFB032065
:102AE0008DF8020018208DF803004FF48040ADF8F7
:102AF000000069465B48FFF702FD4FF40040ADF867
:102B0000000069465748FFF7FAFC0120ADF80000C5
:102B100069465448FFF7F3FC0220ADF8000069460F
:102B20005048FFF7ECFC8020ADF8000069464E48A5
:102B3000FFF7E5FC4FF48070ADF8000069464A48A5
:102B4000FFF7DDFC4FF40070ADF800006946464821
:102B5000FFF7D5FC4FF48060ADF8000069464248AD
:102B6000FFF7CDFC4FF40060ADF8000069463E4829
:102B7000FFF7C5FC4FF48050ADF8000069463A48B5
:102B8000FFF7BDFC4FF40050ADF800006946364831
:102B9000FFF7B5FC4FF48040ADF8000069463248BD
:102BA000FFF7ADFC4FF40040ADF8000069462E4839
:102BB000FFF7A5FC4FF48070ADF800006946294886
:102BC000FFF79DFC4FF40070ADF800006946254802
:102BD000FFF795FC4FF48060ADF80000694621488E
:102BE000FFF78DFC03208DF8020018208DF80300FC
:102BF0001020ADF8000069461A48FFF780FC20203D
:102C0000ADF8000069461748FFF779FC8020ADF861
:102C1000000069461348FFF772FC4FF40060ADF8FE
:102C2000000069460F48FFF76AFC10208DF803008A
:102C300003208DF802000220ADF8000069460A4822
:102C4000FFF75DFC10208DF8030003208DF80200D3
:102C50004FF48050ADF8000069460248FFF74FFC82
:102C600008BD0000001401400018014010B50446E2
:102C7000072C00DD10BD28480470204604EBD071FD
:102C80004910A4EB410139B9F020244908804FF4E0
:102C9000A0702349088006E04FF4A0701F49088007
:102CA000F0201F490880362000F0D2F9082141EABF
:102CB000441000F0D1F92A2000F0CAF9002000F0F9
:102CC000CBF9002000F0C8F914490988491EC1F366
:102CD000072000F0C1F911490978491EC8B200F077
:102CE000BBF92B2000F0B4F9002000F0B5F900206A
:102CF00000F0B2F90A490988491EC1F3072000F023
:102D0000ABF907490978491EC8B200F0A5F92C2093
:102D100000F09EF900BFADE7241000202010002035
:102D20002210002010B5FFF7D5FEFFF794FE01201A
:102D3000FFF7A0FC00F052F900F038F802480078E4
:102D4000FFF794FF10BD0000241000202DE9F04192
:102D500004460D4616461F462A2000F079F9201237
:102D600000F07AF9E0B200F077F9A119491EC1F339
:102D70000F2000F071F9A119491EC8B200F06CF9DA
:102D80002B2000F065F9281200F066F9E8B200F097
:102D900063F9E919491EC1F30F2000F05DF9E91943
:102DA000491EC8B200F058F9BDE8F08110B5CF2037
:102DB00000F04EF9002000F04FF9812000F04CF9AE
:102DC000302000F049F9ED2000F042F9642000F0D5
:102DD00043F9032000F040F9122000F03DF9812072
:102DE00000F03AF9E82000F033F9852000F034F9DA
:102DF000102000F031F9782000F02EF9CB2000F0FF
:102E000027F9392000F028F92C2000F025F90020BE
:102E100000F022F9342000F01FF9022000F01CF924
:102E2000F72000F015F9202000F016F9EA2000F054
:102E30000FF9002000F010F9002000F00DF9B1208A
:102E400000F006F9002000F007F91B2000F004F95B
:102E5000B62000F0FDF80A2000F0FEF8A22000F0F5
:102E6000FBF8C02000F0F4F8352000F0F5F8C120A0
:102E700000F0EEF8112000F0EFF8C52000F0E8F8BF
:102E8000452000F0E9F8452000F0E6F8C72000F002
:102E9000DFF8A22000F0E0F8F22000F0D9F80020DE
:102EA00000F0DAF8262000F0D3F8012000F0D4F882
:102EB000E02000F0CDF80F2000F0CEF8262000F042
:102EC000CBF8242000F0C8F80B2000F0C5F80E2045
:102ED00000F0C2F8092000F0BFF8542000F0BCF860
:102EE000A82000F0B9F8462000F0B6F80C2000F059
:102EF000B3F8172000F0B0F8092000F0ADF80F206B
:102F000000F0AAF8072000F0A7F8002000F0A4F8CD
:102F1000E12000F09DF8002000F09EF8192000F05C
:102F20009BF81B2000F098F8042000F095F8102082
:102F300000F092F8072000F08FF82A2000F08CF8BB
:102F4000472000F089F8392000F086F8032000F0CF
:102F500083F8062000F080F8062000F07DF830208D
:102F600000F07AF8382000F077F80F2000F074F8BD
:102F7000362000F06DF8C82000F06EF82A2000F02E
:102F800067F8002000F068F8002000F065F80020E5
:102F900000F062F8EF2000F05FF82B2000F058F806
:102FA000002000F059F8002000F056F8012000F051
:102FB00053F83F2000F050F83A2000F049F855202F
:102FC00000F04AF8112000F043F80348FFF77AFBBD
:102FD000292000F03DF810BDFCBF020010B5022111
:102FE0000748FFF717FB40F6FF20FFF76BFB0221B6
:102FF0000348FFF711FB40F6FF20FFF763FB10BD0E
:103000000018014070B504460D4601231A462946B2
:103010002046FFF79BFE70BD70B505460C4609487B
:10302000008885420CDA08480088844208DA214684
:103030002846FFF7E7FF054801880120FFF73AFD22
:1030400070BD000020100020221000202C10002055
:103050004FF0C04108807047014908807047000068
:103060000000026008B50121142000F063F801207F
:10307000ADF8000004208DF8030069460748FFF70B
:103080003EFA4FF40050ADF8000004208DF8030024
:1030900069460348FFF733FA08BD00000008014005
:1030A000001001400148006870470000281000200F
:1030B00001490880704700002E1000200149086077
:1030C0007047000028100020014908807047000068
:1030D0002C10002000BFFEE770477047014600201B
:1030E000034A506820F44040084350607047000095
:1030F0000010024029B1064A52690243044B5A614A
:1031000004E0034A52698243014B5A617047000050
:103110000010024029B1064AD2690243044BDA6129
:1031200004E0034AD2698243014BDA617047000030
:103130000010024029B1064A92690243044B9A6189
:1031400004E0034A92698243014B9A617047000090
:103150000010024021B1028842F04002028004E0E7
:1031600002884FF6BF731A400280704770B505465B
:103170000C46164601211048FFF74CFA032000F0D8
:103180007DF8C4F3074000F079F8C4F3072000F09D
:1031900075F8E0B200F072F804E0FF2000F06EF87D
:1031A00028706D1C301EA6F101018EB2F5D10121EF
:1031B0000148FFF731FA70BD0010014000B587B03B
:1031C00001210803FFF7B6FF0121D420FFF7B2FF6A
:1031D0000120ADF8040003208DF8060010208DF8C2
:1031E000070001A92248FFF78AF92020ADF8040062
:1031F00018208DF8070001A91E48FFF780F940202C
:10320000ADF8040001A91B48FFF779F98020ADF85B
:10321000040001A91748FFF772F901211448FFF7CC
:10322000FBF90020ADF808004FF48270ADF80A00F9
:103230000020ADF80C000220ADF80E000120ADF822
:1032400010004002ADF812000820ADF81400002074
:10325000ADF816000720ADF8180002A9064800F0E6
:1032600057F801210448FFF775FF07B000BD0000C3
:1032700000100140000801400030014010B5044634
:103280004FF48050194908600AE018490868411E47
:10329000164A116020B9002000F058F8C0B210BDE5
:1032A0000221134800F026F80028EED021461048ED
:1032B00000F02CF84FF480500C4908600AE00B49EC
:1032C0000868411E094A116020B9012000F03EF84B
:1032D000C0B2E4E70121064800F00CF80028EED067
:1032E000034800F010F8C0B2D9E700004C100020ED
:1032F000003001400246002013890B400BB1012031
:1033000000E000207047014688897047818170473E
:1033100010B50022028802F441520B884C882343E6
:103320008C882343CC8823430C8923434C89234333
:103330008C892343CC8923431A430280838B4FF229
:10334000FF74234083830B8A038210BD10B50446AB
:10335000214602A000F090F9002010BD3C3C2D4613
:103360004C4153482D4552524F522D3E3E20535012
:103370004920B5C8B4FDB3ACCAB1216572726F7291
:10338000436F6465203D2025640A0000704710B536
:1033900000F002F810BD00000CB500200190009074
:1033A0003348006840F480303149086000BF30483D
:1033B000006800F4003000900198401C01900098D3
:1033C00018B90198B0F5A06FF1D12948006800F450
:1033D000003010B10120009001E000200090009822
:1033E000012843D12348006840F0100021490860BB
:1033F0000846006820F0030008600846006840F0B6
:10340000020008601A484068194948600846406848
:1034100048600846406840F480604860084640685C
:1034200020F47C1048600846406840F4E81048608A
:103430000846006840F08070086000BF0C480068D3
:1034400000F000700028F9D00948406820F003001F
:10345000074948600846406840F00200486000BFE5
:103460000348406800F00C000828F9D10CBD0000AA
:1034700000100240002002407047000010B51348C1
:10348000006840F001001149086008464068104992
:1034900008400E494860084600680E4908400B493C
:1034A00008600846006820F48020086008464068EC
:1034B00020F4FE0048604FF41F008860FFF767FFAC
:1034C0004FF000600449086010BD00000010024089
:1034D0000000FFF8FFFFF6FE08ED00E021B10288D2
:1034E00042F00102028004E002884FF6FE731A40A7
:1034F0000280704782884FF68F731A4082808288DC
:103500000A43828070470000002202881D4B9842C7
:103510000ED01D4B98420BD0B0F1804F08D01B4B02
:10352000984205D01A4B984202D01A4B984204D1C7
:103530004FF68F731A404B881A43174B984207D0A7
:10354000164B984204D04FF6FF431A40CB881A43DB
:1035500002808B8883850B8803850A4B98420BD0A9
:10356000094B984208D00E4B984205D00D4B98421B
:1035700002D00D4B984201D10B7A0386012383823E
:1035800070470000002C014000340140000400405E
:1035900000080040000C00400010004000140040F3
:1035A0000040014000440140004801400020124911
:1035B000086019E010480068401E104931F81000FA
:1035C0000F49098888420ADA0C490B480068401CF8
:1035D00031F810000A490988884200DD08E00648F1
:1035E0000068401C0449086003480068CC28E1DBFF
:1035F00000BF014800687047F40F0020BC3D002068
:10360000F80F002002460020B1F5007F00D100BF76
:1036100013880B400BB1012000E000207047C1F37C
:1036200008028280704700BFFEE710B50520FFF753
:103630001DFB10BD70B5002400250520FFF716FB0B
:103640001F20FFF741FD00BF06E0ABB2A9B2F02298
:103650000120FFF75DF91435822DF6DD002408E026
:1036600004F114018AB288B264230021FFF750F9F3
:103670001434F02CF4DD70BD0FB4054B10B503A964
:10368000044A029800F0E4F810BC5DF814FB000056
:1036900071400008501000200FB4084B10B504A969
:1036A00002AA039800F0D4F8044602A9002000F012
:1036B00066FC204610BC5DF814FB00007F3F00084C
:1036C00002E008C8121F08C1002AFAD170477047EB
:1036D000002001E001C1121F002AFBD17047000049
:1036E0000149086070470000541000202DE9FF5F79
:1036F000DDE90220010DDDF838B0024318D044F6B0
:103700001050A1F2FF3141430D140F98012820D031
:10371000A5EB0B00401C5FEA000A4FF00004474E87
:10372000DFF81C91A046504616D5CAF1000728E0E4
:103730000F98012443A2012808D0002100980F9B74
:10374000C0E90021C0E90243BDE8FF9F6FEA0B0119
:10375000F4E7CBF10000DEE7074612E0F80707D0F8
:103760002246334640464946FDF75DFF804689467E
:103770002246334610461946FDF755FF04460E46CD
:103780007F10002FEAD1DDE90201BAF1000F4246B5
:103790004B4602DAFDF747FF01E0FDF7B6FF0446AE
:1037A0000E460022284BFEF725FA03D84FF0FF30D3
:1037B000014607E00022254B20463146FDF78CFEEE
:1037C000FEF7FFF9102409E0002C0ADB0A2200238F
:1037D000FEF7B0F8019B30321A55641E50EA010220
:1037E000F2D1641C019AC4F1110314440F9A012A06
:1037F00003D0012208430DD10AE0084304D0002081
:103800004FF0110B0F9080E7A3EB0B056D1E0DE041
:103810005B4504DD4FF0000205F1010504E003DA29
:103820004FF00002A5F10105002AECD000980F9995
:10383000C0E90231C0E9004586E7000000002440ED
:103840000000F03F300000000000F0430000E03FC7
:103850002DE9FF4F95B09B468946064600250FE2AD
:10386000252877D100242746F84A0121059400E055
:10387000044316F8013F203B01FA03F01042F7D150
:1038800030782A2811D06FF02F033078A0F1300261
:10389000092A16D8059A44F0020402EB820203EBCF
:1038A00042021044761C0590EFE759F8042B05926C
:1038B000002A03DA504244F40054059044F0020414
:1038C000761C30782E2816D116F8010F44F0040427
:1038D0002A280DD06FF02F023078A0F13003092B89
:1038E00009D807EB870302EB4303C718761CF3E7FD
:1038F00059F8047B761C30786C280FD006DC4C28F5
:1039000017D068280DD06A2814D104E0742810D08C
:103910007A280FD10DE044F400140AE044F4801436
:1039200001E044F440147278824202D104F580141C
:10393000761C761C307866280BD013DC582877D09C
:1039400009DC002875D04528F6D04628F4D0472851
:103950001AD19DE118E0632835D0642879D0652814
:1039600012D195E1702873D008DC6728F1D069285E
:103970006FD06E280DD06F2806D1B5E073282CD0FB
:10398000752875D0782874D05A46179990476D1CC1
:1039900075E1C4F30250022809D003280DD0D9F8EC
:1039A000001004280DD00D6009F1040967E1D9F871
:1039B0000010EA17C1E90052F6E7D9F800100D80AF
:1039C000F2E70D70F0E719F8041B8DF800100020E5
:1039D0008DF80100EA46012003E059F804AB4FF0EE
:1039E000FF3061074FF0000102D40DE008F1010142
:1039F0008846B9420FDA8045F8DB1AF8081000292A
:103A0000F4D108E008F1010188468142FADB1AF896
:103A100008100029F6D105985B46A0EB080721465F
:103A20003846179A00F094FA284400EB080507E09E
:103A30004DE029E10DE01AF8010B5A46179990471D
:103A4000B8F10108F7D25B4621463846179A13E1D0
:103A500042E00A220092C4F302524FF0000A022A06
:103A600008D059F804CB032A4FEAEC710AD00DE0D4
:103A700029E02AE009F1070121F00702F2E802C17A
:103A8000914609E00FFA8CFC4FEAEC71042A03D14D
:103A90004FFA8CFC4FEAEC71002907DA0A46002144
:103AA000DCF1000C61EB02012D2202E0220504D5BD
:103AB0002B228DF80420012203E0E20701D020220E
:103AC000F7E7904659E00A2102E010220DE01021AC
:103AD0004FF0000A00910BE010224FF0000A44F072
:103AE00004040827009203E008224FF0000A009225
:103AF000C4F30252022A05D059F804CB0021032A4C
:103B000008D009E009F1070121F00702F2E802C13B
:103B1000914605E01FFA8CFC042A01D10CF0FF0C41
:103B20004FF00008220728D5702806D0009B83F0AC
:103B3000100353EA0A0305D00EE040228DF804205A
:103B4000012208E05CEA010206D030228DF8042050
:103B50008DF8050002229046009B83F0080353EA8B
:103B60000A030AD15CEA010201D1620705D53022BD
:103B70008DF804204FF001087F1E582804D034A08F
:103B800003900EA802900DE036A0F9E75346604678
:103B9000009AFDF7CFFE84460398825C0298401E8F
:103BA000029002705CEA0100F0D1029806A9081A9E
:103BB00000F1200A600702D524F4803400E00127D8
:103BC000574502DDA7EB0A0000E0002000EB0A01E8
:103BD000009005984144401A0590E00306D45B46E6
:103BE0002146179A059800F0B3F90544002706E02E
:103BF00001A85A46C05D179990476D1C7F1C474528
:103C0000F6DBE0030CD55B462146179A059800F0D9
:103C10009FF9054404E030205A46179990476D1CDF
:103C20000099481E00900029F5DC08E002980299EE
:103C30005A460078491C0291179990476D1CBAF1B9
:103C40000001AAF1010AF1DC65E100000928010088
:103C50003031323334353637383961626364656602
:103C600000000000303132333435363738394142C4
:103C7000434445460000000000F058F90544761C16
:103C8000307800287FF4ECAD19B02846BDE8F08FFD
:103C9000620700D4062709F1070222F0070CFCE8AE
:103CA0000223E14603F000485FEA080C02D00FF25D
:103CB000702C0DE05FEA045C02D50FF2682C07E07F
:103CC0005FEAC47C02D00FF2602C01E0AFF2700C0E
:103CD0004FF0FF3823F00043CDF850C065280CD0DA
:103CE00006DC452809D046281DD047283DD13DE0B7
:103CF000662818D067287ED138E00021112F01DB1B
:103D0000112000E0781CCDE9000106A90EA8FFF7FC
:103D1000EDFCDDE90F010E9A03910021009207F1FD
:103D2000010A04914DE04FF000400097CDE90110E9
:103D300006A90EA8FFF7DAFCDDE90F0203920E9B3D
:103D400011990022DDF80CA00093049211B9791C9E
:103D500000EB010AB7EB0A0004D4C0F1FF3007F111
:103D6000010A0490AAEB0700019044E0012F00DA59
:103D700001270021112F01DD112000E03846CDE997
:103D8000000106A90EA8FFF7B1FCDDE90F010E9AAC
:103D90000391002104910092BA4621070CD40399A3
:103DA000514500DA8A46BAF1010F05DD009AAAF101
:103DB0000101515C302908D0B84202DA10F1040F39
:103DC00006DA0121CDE9011015E0AAF10101E9E7C8
:103DD000002805DC049901440491AAEB000102E0EB
:103DE000411C514500DD8A460499401A401C01904F
:103DF0004FF000400290200704D40198504501DBA9
:103E0000CDF8048000208DF84F0002980DF14F0787
:103E1000B0F1004F25D02B200E9002984FF00208F1
:103E200000280CDA404202902D200E9007E00A2173
:103E30000298FDF769FD3031029007F8011DB8F1D5
:103E40000001A8F10108F2DC02980028EFD1791EE8
:103E50000E980870307800F0200040F0450007F818
:103E6000020D12A8C01B00F107081498007800B1D9
:103E7000012000EB0A01019801EBE0710598414433
:103E8000401A401E0590E00306D45B462146179A6F
:103E9000059800F05DF805441498007818B15A466A
:103EA000179990476D1CE00324D55B462146179A6D
:103EB000059800F04DF805441CE00498002807DB45
:103EC000DDE90301884203DD0098405C179901E0B9
:103ED000179930205A469047049805F10105401C77
:103EE00004900198401E019004D12E205A46179943
:103EF00090476D1CBAF10001AAF1010ADDDC05E072
:103F000017F8010B5A46179990476D1CB8F100013C
:103F1000A8F10108F4DC5B462146179A0598ABE648
:103F20002D0000002B000000200000002DE9F041D2
:103F3000044600251E461746880404D405E0394689
:103F40002020B0476D1C641EF9D52846BDE8F081DD
:103F50002DE9F041044600251E469046C80301D5D0
:103F6000302700E02027880404D505E04146384684
:103F7000B0476D1C641EF9D52846BDE8F0810A687B
:103F8000531C0B60107070472DE9F04F87B005206F
:103F9000FEF76CFE002407E02F4830F81400000400
:103FA0002E4941F82400641CB4F5806FF4DB4FF413
:103FB00080622A492A48FCF7D7F8002446E02848BE
:103FC00030F824000FFA80F9254850F824004FEA11
:103FD000204A4846FDF708FC07464FF08941FDF7A7
:103FE0000BFA05465046FDF7FFFB07464FF08941A7
:103FF000FDF702FA064631463046FDF7FDF929463F
:1040000001902846FDF7F8F900900199FDF79CF919
:104010008346FDF735FCCDE9020100F0CDF9002221
:10402000104BCDE90401FDF770FB0746FDF73BFCA3
:104030000D4941F8240051F824000C49FDF75AFCC1
:1040400003D20A48084941F82400641CB4F5007FF3
:10405000B5DD07B0BDE8F08FBC3D0020BC1D0020E1
:10406000BC2D00200000B040BC1500200000A04284
:1040700070B504460D46E1B20548FFF7D0FA00BF1F
:1040800080210348FFF7BEFA0028F9D0204670BD12
:10409000003801401FB5FEF745FEFDF7DBFEFDF7DA
:1040A000F7FFFEF7DFFF0520FEF7E0FD3748FFF7DB
:1040B00005F80020FEF7FCFF3548038835480288E4
:1040C00000210846FEF7E8FA5EE04FF00009FFF72E
:1040D0006DFAFEF7E9F8B9F1320F02D0B9F1000F2D
:1040E00051D10020FEF7F0FF002441E0002C3ED02B
:1040F000294850F824102948FDF726F90546FDF710
:1041000092FB80B20390601CFDF77CFB0746244ABB
:10411000244BFDF788FA05460022234BFDF7DCF916
:104120008246FDF794FB80B20290601E1A4A52F854
:1041300020101A48FDF708F90546FDF774FB80B218
:1041400001902046FDF75EFB0746154A154BFDF72B
:104150006AFA05460022144BFDF7BEF98246FDF7C8
:1041600076FB80B2009001A90EC9FEF724FC641C06
:10417000B4F5007FBADD00F019F8FFF705FFFFF78F
:1041800054FA4FF0000900BF9FE7000030100020F4
:104190002210002020100020BC1500200000204329
:1041A0009A9999999999D93F000034402DE9F04F97
:1041B00089B06B4805904FF08B40049000BF0520FC
:1041C000FEF754FD662424E0662C0AD100200290FC
:1041D0000390644830F814000790624830F81400E7
:1041E0000690604830F814100798814204DD5D485D
:1041F00030F81400079002945A4830F814100698CA
:10420000814204DA574830F8140006900394601C89
:1042100084B2CC2CD8DB534A029932F81100FDF756
:10422000ECFA80460499FDF719F907460599FDF760
:10423000E3F805464B4A039932F81100FDF7DDFA21
:1042400080460499FDF70AF907460599FDF7D4F869
:1042500006464548FEF732FF4FF4FC60FEF734FF98
:104260002846FDF70DFB07463A460B463FA143485B
:10427000FFF712FAFEF716FFC08800EB800040043B
:10428000070C3E493846FEF7B5FA3046FDF7F8FA16
:1042900007463A460B463AA13848FFF7FDF9FEF7C4
:1042A00001FFC08800EB400101EBC00087B2334939
:1042B0003846FEF79FFA29463046FDF745F84FF09D
:1042C00080410190FDF7CAF88346FDF7D9FA074609
:1042D0003A460B462EA12948FFF7DEF9FEF7E2FE2B
:1042E000C08800EB40008004070C24493846FEF7E4
:1042F00081FA2B48D0F804904FF0000A01240CE01A
:10430000274850F824104846FDF7EAFA03D224481B
:1043100050F82490A246601C84B2B4F5007FEFDB15
:104320005046FDF76FFA07464FF066321D4BFDF71A
:104330007AF902460B46CDE900011BA10F48FFF7B1
:10434000ABF9FEF7AFFEC08800EB800101EBC000C7
:1043500087B20A493846FEF74DFA09B0BDE8F08F3A
:1043600033335340BC3D002030100020566D61783F
:104370002856293A252E32660000000058100020E9
:10438000566D696E2856293A252E326600000000C7
:10439000566176652856293A252E326600000000BF
:1043A000BC1500206666C63F467265284B687A29B0
:1043B0003A25202E326600002DE9F04106460F46D0
:1043C000FDF7AEFB041E0D4618BF0120284320F068
:1043D0000040C0F17F6000F1E040C00F0ED0301C03
:1043E00018BF0120384320F00040C0F17F6000F189
:1043F000E040C00F04BF0120FFF772F920462946B4
:10440000BDE8F08100000000000000000000000096
:1044100000000000000000181818181818080008FC
:1044200018000000000000342424240000000000D4
:10443000000000000000000016247F2424247E24B5
:1044400024000000000000083E6848681C16121294
:104450007C10100000000061D296740810162949E3
:10446000C6000000000000003C646438724ACE467A
:104470007F0000000000001818181800000000005D
:104480000000000000000004081810303030301028
:1044900010180C04000000201008080C0404040C80
:1044A00008181020000000080A341C6A08000000E8
:1044B000000000000000000000001818187F181805
:1044C00018000000000000000000000000000018BC
:1044D000180830000000000000000000003C000050
:1044E00000000000000000000000000000000018B4
:1044F000180000000000000206040C08081010203C
:1045000020400000000000003C6642475B734266AA
:104510003C0000000000000018784808080808085F
:104520007E000000000000003C4606060408102043
:104530007E000000000000007C0606043C0202062B
:104540007C000000000000000C1C14246444FF04E4
:1045500004000000000000007E6060607E02020631
:104560007C000000000000001E306048764242627D
:104570003C000000000000007E0206040C08181039
:1045800030000000000000003C6242361C664242DF
:104590003C000000000000003C664242661A020433
:1045A000780000000000000000001818000000184B
:1045B000180000000000000000001818000000189B
:1045C0001808300000000000000004183060100CD3
:1045D0000600000000000000000000007E007E00D9
:1045E00000000000000000000000301804060C105D
:1045F00020000000000000301C0606061810001005
:10460000100000000000001C224141DDB5A5A5AF4F
:1046100094C0403C00000000181C342426627E43F5
:10462000C1000000000000007C4642467C4242423D
:104630007C000000000000001E2040404040406020
:104640003E000000000000007C46424343434246D7
:1046500078000000000000007E6060607E606060A6
:104660007E000000000000007E6060607E60606090
:1046700060000000000000001E604040CE42426228
:104680003E00000000000000424242427E424242A0
:1046900042000000000000007E18181818181818B2
:1046A0007E000000000000007C04040404040444B4
:1046B00078000000000000004244485070584C440C
:1046C00042000000000000002020202020202020A8
:1046D0003E000000000000006266675F5B5BC1C1D6
:1046E000C100000000000000626272525A4A4E4649
:1046F00046000000000000003C6243C3C3C34362A5
:104700003C000000000000007C46424246784040E9
:1047100040000000000000003C6243C3C3C343628A
:104720003C180F00000000007C6662667C6C6466CA
:1047300062000000000000003E6040601C060202B3
:104740007C000000000000007F18181818181818C6
:104750001800000000000000424242424242426211
:104760003C00000000000000C14342622624341CCB
:104770001800000000000000C1C141495B5B766683
:10478000660000000000000043663418181C246610
:10479000C300000000000000C14266341C18181855
:1047A00018000000000000007E02040C18102060B9
:1047B0007E0000000000001C1010101010101010DF
:1047C0001010101C000000402020101008080C04DD
:1047D000060200000000003C0C0C0C0C0C0C0C0C35
:1047E0000C0C0C3C00000000181C246200000000AF
:1047F00000000000000000000000000000000000B9
:10480000000000FF00000020100000000000000079
:10481000000000000000000000003C06023E42468E
:104820007A0000000000004040405C624242424288
:104830007C0000000000000000001E20604060209E
:104840003E0000000000000202023E624242426658
:104850003A0000000000000000003C62427E406020
:104860003E0000000000000F1810107E1010101005
:10487000100000000000000000003F664266584043
:104880003E43423C0000004040405C6242424242A3
:104890004200000000000018180078080808080806
:1048A0007E000000000000040C007C0404040404EA
:1048B00004040C78000000606060626C78706864CA
:1048C00062000000000000780808080808080808CE
:1048D0007E000000000000000000764B4B4B4B4B6D
:1048E0004B0000000000000000005C6242424242B7
:1048F000420000000000000000003C6242434262AF
:104900003C0000000000000000005C6242424242A5
:104910007C4040400000000000003E62424242668F
:104920003A0202020000000000006E7263606060E4
:10493000600000000000000000003E20203C060255
:104940007C000000000000001010FE10101010107D
:104950001E00000000000000000042424242426689
:104960003A000000000000000000434266243418B2
:1049700018000000000000000000C1C15B5A5E6624
:104980006600000000000000000062261C181C26C3
:104990006200000000000000000043426624341C56
:1049A000181830E00000000000007E060C181020EF
:1049B0007E0000000000000E181010103070101063
:1049C0001010180E00000808080808080808080851
:1049D0000808080800000030180808080C0E08082D
:1049E000080818300000000000000000714B0600AD
:1049F00000000000000000000000000000000000B7
:104A000000000000000000000000000000000000A6
:104A10000000000000000000000000000000000096
:104A20000000000000000000000000000000038003
:104A3000018001800180018001800180018001806E
:104A400001800000000003C003C00000000000005F
:104A500000000000000000000000000000000E70D8
:104A60000E700E700C30000000000000000000000E
:104A70000000000000000000000000000000000036
:104A80000000000000000000000000000000000026
:104A90000618063806307FFE0C300C300C300C3017
:104AA0007FFE0C601C6018601860000000000000B1
:104AB00000000000000000000000000000C000C076
:104AC0000FF83CC831C031803D801F8003F001F8F1
:104AD000031C030C031C3FF83FE007000600000026
:104AE0000000000000000000000000001C007E0E1E
:104AF000630C631863307E6000C001800300077C94
:104B00000EE61CC618C630C6607C0000000000001F
:104B100000000000000000000000000000000FE0A6
:104B20001CF0387038701C601FC00F003F8C71CCB7
:104B300060EC607C70383CFC1FCE00000000000080
:104B4000000000000000000000000000000003C0A2
:104B500001800180018000000000000000000000D2
:104B60000000000000000000000000000000000045
:104B7000000000000000000000000000003000E025
:104B800001C0018003000700060006000E000E00B1
:104B90000E000E00060007000300038001C000E0C5
:104BA0000030000000000000000000000C000600C3
:104BB0000380018001C000E00060006000700070B0
:104BC00000700060006000E000C00180038006000B
:104BD0000C00000000000000000000000000018048
:104BE00011881DB803C007E03DBC018801800000AA
:104BF00000000000000000000000000000000000B5
:104C000000000000000000000000000000000000A4
:104C100000000000018001800180018001807FFE92
:104C20000180018001800180000000000000000080
:104C30000000000000000000000000000000000074
:104C40000000000000000000000000000000000064
:104C50000000000003C003C001C001C003801F00AA
:104C60000000000000000000000000000000000044
:104C700000000000000000000000000000000FF035
:104C80000000000000000000000000000000000024
:104C90000000000000000000000000000000000014
:104CA0000000000000000000000000000000000004
:104CB0000000000003C003C003C0000000000000AB
:104CC00000000000000000000000000000000018CC
:104CD00000380030006000E000C001C00180030027
:104CE000030006000E000C001C001800300000003D
:104CF0000000000000000000000000000000018033
:104D00000FF01C38381C301C707E70EE738E7E0ED7
:104D10007C0C300C381C1E780FE0000000000000F6
:104D20000000000000000000000000000000000083
:104D300007C01FC039C001C001C001C001C001C00F
:104D400001C001C001C03FFC3FFC000000000000AA
:104D500000000000000000000000000000000380D0
:104D60001FF018380038001800380038007001E0D3
:104D7000038007001C003FFC3FFC00000000000017
:104D8000000000000000000000000000000007809C
:104D90001FF0003800380038003007E007F0003816
:104DA000001C001C001820F83FE00000000000007C
:104DB00000000000000000000000000000000000F3
:104DC00000F001B0033007300E301C303830703046
:104DD0007FFE7FFE00300030003000000000000049
:104DE00000000000000000000000000000000000C3
:104DF0001FF818001800180018001FE000F8001C29
:104E0000001C001C003800F01FC000000000000063
:104E10000000000000000000000000000000000092
:104E200003F80F001C001800300037F83C3C300C31
:104E3000300C380C381C1E380FF000000000000049
:104E40000000000000000000000000000000000062
:104E50003FFC001C001800380070006000E001C03A
:104E600001800380070006000E0000000000000023
:104E7000000000000000000000000000000003C06F
:104E80001FF8381C381C381C1C380FF007F01C7831
:104E9000381C300C381C3C380FF0000000000000BB
:104EA000000000000000000000000000000003807F
:104EB0001FF03838301C701C700C380C1FFC0FCCE5
:104EC000001C001800701FE01F80000000000000A0
:104ED00000000000000000000000000000000000D2
:104EE00000000000000003C003C0018000000000BB
:104EF0000000000003C003C003C000000000000069
:104F000000000000000000000000000000000000A1
:104F100000000000000003C003C00180000000008A
:104F20000000000003C003C001C001C003800F00E7
:104F30000000000000000000000000000000000071
:104F400000000000003800F001C007001E0038001B
:104F50000E00078001C0007000300000000000005B
:104F60000000000000000000000000000000000041
:104F7000000000000000000000003FFC00000000F6
:104F80003FFC3FFC000000000000000000000000AB
:104F90000000000000000000000000000000000011
:104FA000000000001C000F00038001E00078001CDE
:104FB000007001E003800E000C0000000000000003
:104FC00000000000000000000000000000000FC012
:104FD00000F0003800380038003803F00380030088
:104FE00003000000000007800780000000000000B0
:104FF00000000000000000000000000000E007F8D2
:105000000C0C18063006700363F36633C673CC636A
:10501000CC62CC66CCE6C7FCE000600070003810C3
:105020001FF0000000000000000000000000000071
:1050300003C007E006E00E700E700C301C38181824
:105040003FFC3FFC700E600EE00700000000000017
:105050000000000000000000000000000000000050
:105060003FF03838381C381C38383FF03FF8381CCF
:10507000380C380C381C3FF83FE0000000000000FE
:10508000000000000000000000000000000000E040
:1050900007FC1E04380038003000700070007000FB
:1050A000300038003C001F9C07FC0000000000009E
:1050B00000000000000000000000000000000000F0
:1050C0003FF03078301C300C300E300E300E300E89
:1050D000300E301C30383FF03FC0000000000000B0
:1050E00000000000000000000000000000000000C0
:1050F0001FF818001800180018001FF81FF81800F3
:105100001800180018001FF81FF800000000000029
:10511000000000000000000000000000000000008F
:105120001FF818001800180018001FF81FF81800C2
:1051300018001800180018001800000000000000F7
:10514000000000000000000000000000000000F06F
:1051500007FC1E04380030007000700070FC700CFA
:10516000700C300C380C1F1C07FC00000000000005
:10517000000000000000000000000000000000002F
:10518000300C300C300C300C300C3FFC3FFC300C41
:10519000300C300C300C300C300C000000000000E3
:1051A00000000000000000000000000000000000FF
:1051B0003FFC01800180018001800180018001802D
:1051C0000180018001803FFC3FFC000000000000E6
:1051D00000000000000000000000000000000000CF
:1051E0001FF0003000300030003000300030003060
:1051F0000030003000701DE01FC000000000000003
:10520000000000000000000000000000000000009E
:10521000381C387038E039C03B803F003F003B808D
:1052200039C038E038703838381C00000000000001
:10523000000000000000000000000000000000006E
:105240001C001C001C001C001C001C001C001C007E
:105250001C001C001C001FFC1FFC000000000000C4
:10526000000000000000000000000000000000003E
:10527000381C7C3C6C3E6E6E666E66CE63C6638682
:10528000618660066006600660060000000000009F
:10529000000000000000000000000000000000000E
:1052A0003C0C3C0C3E0C360C330C338C318C31CC2A
:1052B00030EC306C307C303C301C000000000000D2
:1052C000000000000000000000000000000001C01D
:1052D0000FF81C3C381C700E700E60066006700ED5
:1052E000700E700C381C1E780FE0000000000000EB
:1052F00000000000000000000000000000000000AE
:105300003FF0383C381C380C380C381C38783FE0FB
:105310003800380038003800380000000000000075
:10532000000000000000000000000000000001C0BC
:105330000FF81C3C381C700E700E60066006700E74
:10534000700E700C381C1E780FE0018001C000FF49
:10535000003C000000000000000000000000000011
:105360003FF0383838183818383838F03FC038E04F
:10537000387038383838381C380E0000000000000B
:10538000000000000000000000000000000001E03C
:105390000FF83800380038003C001F8003F0007818
:1053A000001C001C001C38783FE0000000000000DA
:1053B00000000000000000000000000000000000ED
:1053C0007FFE0180018001800180018001800180D9
:1053D0000180018001800180018000000000000048
:1053E00000000000000000000000000000000000BD
:1053F000300C300C300C300C300C300C300C300CCD
:10540000300C300C381C1C380FF00000000000007D
:10541000000000000000000000000000000000008C
:10542000E006700E700E381C381C1C181C380C302E
:105430000E70066007E003C003C00000000000001B
:10544000000000000000000000000000000000005C
:1054500060066006600660066186638673C673CE6A
:10546000766C366C3C3C3C3C381C00000000000074
:10547000000000000000000000000000000000002C
:10548000301C38181C380E7007E003C003C007E05A
:105490000E701C381838381C700E00000000000018
:1054A00000000000000000000000000000000000FC
:1054B000700E700C381C1C380E70066007E003C0BC
:1054C0000180018001800180018000000000000057
:1054D00000000000000000000000000000000000CC
:1054E0003FFC001C0038007000E001C00380070092
:1054F0000E000C0018003FFC3FFC00000000000004
:1055000000000000000000000000000007F007F0AD
:10551000060006000600060006000600060006005B
:10552000060006000600060006000600060006004B
:1055300007F000000000000000000000000018005C
:105540001C000C000600070003000380018001C05E
:1055500000C000600070003000380018000C00002F
:105560000000000000000000000000000FE00FE05D
:10557000006000600060006000600060006000602B
:10558000006000600060006000600060006000601B
:105590000FE000000000000000000000000000001C
:1055A00003C006C006600C301818301C0000000054
:1055B00000000000000000000000000000000000EB
:1055C00000000000000000000000000000000000DB
:1055D00000000000000000000000000000000000CB
:1055E00000000000000000000000000000000000BB
:1055F000FFFF0000000000000000000000001E008F
:105600000380000000000000000000000000000017
:10561000000000000000000000000000000000008A
:10562000000000000000000000000000000000007A
:105630000000000000001FF01038001C001C0FFCD0
:105640001C1C381C381C3CFC1FDC00000000000047
:105650000000000000000000000000000000380012
:105660003800380038003BF83E1C3C1C380C380C25
:10567000380C380C381C3C781FE00000000000009B
:10568000000000000000000000000000000000001A
:1056900000000000000007F80E001C003800380071
:1056A000380038001C000F1807F800000000000048
:1056B0000000000000000000000000000000001CCE
:1056C000001C001C001C0FFC1C1C381C301C301C57
:1056D000301C301C383C1CFC0F9C000000000000FB
:1056E00000000000000000000000000000000000BA
:1056F0000000000000000FF01C38381C300C3FFC8C
:105700003000300038001E0C07FC000000000000D4
:10571000000000000000000000000000003C01FE4E
:1057200003800300030003007FFC7FFC03000300F1
:10573000030003000300030003000000000000005A
:105740000000000000000000000000000000000059
:105750000000000000000FFE1C38381838181838F8
:105760001FF03B8030003FF01FFC300E700E381CE5
:105770001FF80000000000000000000000003800DA
:105780003800380038003BF83E383C1C381C381CC8
:10579000381C381C381C381C381C00000000000065
:1057A000000000000000000000000000018003C0B5
:1057B00003C0000000001FC001C001C001C001C043
:1057C00001C001C001C001C03FFC0000000000009A
:1057D0000000000000000000000000000020007039
:1057E0000070000000003FF000700070007000705A
:1057F000007000700070007000700070007020E099
:105800003FC0000000000000000000000000180081
:10581000180018001800183C187018E01B801F00B2
:105820001B8019E018701838181C000000000000D8
:1058300000000000000000000000000000001FC089
:1058400001C001C001C001C001C001C001C001C050
:1058500001C001C001C001C03FFC00000000000009
:105860000000000000000000000000000000000038
:105870000000000000006F3C79EE71CE718E718ED9
:10588000718E718E718E718E718E0000000000001D
:105890000000000000000000000000000000000008
:1058A0000000000000003BF83E383C1C381C381C4F
:1058B000381C381C381C381C381C00000000000044
:1058C00000000000000000000000000000000000D8
:1058D0000000000000000FF01C3C381C700E700E21
:1058E000700E700C381C1E780FE0000000000000E5
:1058F00000000000000000000000000000000000A8
:105900000000000000003BF83E1C3C1C380C380C2A
:10591000380C380C381C3C783FE038003800380030
:10592000380000000000000000000000000000003F
:105930000000000000000FFC1C1C381C301C301C38
:10594000301C301C383C1CFC0F9C001C001C001C34
:10595000001C00000000000000000000000000002B
:1059600000000000000019F81F1C1C0C180E180085
:1059700018001800180018001800000000000000AF
:105980000000000000000000000000000000000017
:105990000000000000000FF81C0018001E000FC0DF
:1059A00001F80018001818381FF00000000000006F
:1059B00000000000000000000000000000000000E7
:1059C0000600060006007FFC060006000600060032
:1059D000060006000700078401FC0000000000002C
:1059E00000000000000000000000000000000000B7
:1059F000000000000000381C381C381C381C381C03
:105A0000381C381C383C1CFC0FDC00000000000077
:105A10000000000000000000000000000000000086
:105A2000000000000000700C381C38181C380C30C6
:105A30000E70066007E003C003C000000000000015
:105A40000000000000000000000000000000000056
:105A5000000000000000600660066186738E73CC53
:105A600033CC366C366C3C3C3C3800000000000007
:105A70000000000000000000000000000000000026
:105A8000000000000000381C1C380E7007E003C046
:105A900003C007E00E701C38381E00000000000034
:105AA00000000000000000000000000000000000F6
:105AB000000000000000700C381C38181C380C3036
:105AC0000E70066007E003C003C0038007000E00ED
:105AD0007C0000000000000000000000000000004A
